:100000000C94E2050C9414060C9414060C9414063B
:100010000C9414060C9414060C9414060C941406F8
:100020000C9414060C942E460C9414060C9414068E
:100030000C9414060C9456450C9414060C94140657
:100040000C9414060C9414060C9414060C941406C8
:100050000C94DF680C9414060C9407690C94140635
:100060000C9414060C9414060C9414060C941406A8
:100070000C943C690C9414060C947069FE163417A9
:100080003717321741175618561832178517561852
:100090008F179417AF17DB174B1754175B173217CF
:1000A00080175618181746171718561856182E186E
:1000B00000000100FE010100F8030100EE0501004F
:1000C000E0070100CF090100BB0B0100A30D0100F7
:1000D000870F01006811010046130100201501007F
:1000E000F8160100CC1801009D1A01006C1C0100DB
:1000F000371E010000200100C521010088230100F6
:100100004825010006270100C1280100792A0100C5
:100110002F2C0100E32D0100942F0100423101003A
:10012000EE3201009834010040360100E53701004D
:1001300088390100293B0100C83C0100653E0100EF
:1001400000400100984101002F430100C344010019
:1001500056460100E747010075490100024B0100C6
:100160008D4C0100164E01009E4F010024510100EC
:10017000A75201002A540100AA5501002957010085
:10018000A6580100225A01009B5B0100145D01008A
:100190008A5E01000060010073610100E5620100F8
:1001A00056640100C5650100326701009F680100C7
:1001B000096A0100736B0100DB6C0100416E0100F4
:1001C000A66F01000A7101006D720100CE7301007B
:1001D0002E7501008C760100EA7701004679010056
:1001E000A17A0100FA7B0100527D0100AA7E010084
:1001F0000080010054810100A8820100FA830100FF
:100200004B8501009C860100EB87010038890100C5
:10021000858A0100D18B01001C8D0100658E0100D3
:10022000AE8F0100F59001003B9201008193010027
:10023000C5940100089601004B9701008C980100BD
:10024000CC9901000C9B01004A9C0100879D010094
:10025000C49E010000A001003AA1010074A20100A7
:10026000ADA30100E4A401001BA6010051A70100F9
:1002700087A80100BBA90100EEAA010021AC010082
:1002800053AD010084AE0100B4AF0100E3B0010042
:1002900011B201003FB301006BB4010097B501003A
:1002A000C3B60100EDB7010016B901003FBA010065
:1002B00067BB01008EBC0100B5BD0100DBBE0100C3
:1002C00000C0010024C1010047C201006AC301004F
:1002D0008CC40100ADC50100CEC60100EEC701000F
:1002E0000DC901002BCA010049CB010066CC0100F9
:1002F00082CD01009ECE0100B9CF0100D3D0010014
:10030000EDD1010006D301001ED4010036D5010055
:100310004DD6010063D7010079D801008ED90100C4
:10032000A2DA0100B6DB0100CADC0100DCDD01005D
:10033000EEDE010000E0010010E1010020E201001A
:1003400030E301003FE401004DE501005BE6010000
:1003500068E7010075E8010081E901008CEA01000D
:1003600097EB0100A2EC0100ACED0100B5EE01003D
:10037000BDEF0100C6F00100CDF10100D4F2010093
:10038000DBF30100E1F40100E6F50100EBF601000A
:10039000EFF70100F3F80100F6F90100F9FA0100A6
:1003A000FBFB0100FDFC0100FEFD0100FFFE010062
:1003B0000000020024F404D9201BC40C5C0E980435
:1003C000C4095F0265077101F405F900FB04B3007D
:1003D00048048700C1036900580355000303450022
:1003E000BE023A008402310053022A00290225008D
:1003F00004022000E4011C00C8011900AF0117002D
:1004000098011400840113007101100061011000B3
:1004100051010E0043010D0036010B002B010B00B2
:1004200020010B00150109000C010900030108005F
:10043000FB000800F3000800EB000700E4000600E2
:10044000DE000600D8000600D2000600CC00050041
:10045000C7000500C2000500BD000400B90004008B
:10046000B5000400B1000400AD000400A9000400C0
:10047000A5000300A20003009F0004009B000300EE
:100480009800030095000200930003009000030011
:100490008D0002008B00030088000200860002002D
:1004A00084000300810002007F0002007D00020042
:1004B0007B00020079000200770001007600020054
:1004C0007400020072000100710002006F0002005F
:1004D0006D0001006C0002006A000100690002006A
:1004E0006700010066000100650001006400020071
:1004F0006200010061000100600001005F00020075
:100500005D0001005C0001005B0001005A00010079
:100510005900010058000100570001005600010079
:100520005500010054000100530000005300010079
:100530005200010051000100500001004F00010075
:100540004E0000004E0001004D0001004C00010073
:100550004B0000004B0001004A000100490001006F
:10056000480000004800010047000100460000006C
:100570004600010045000000450001004400010064
:10058000430000004300010042000000420001005F
:100590004100000041000100400001003F00000058
:1005A0003F0001003E0000003E0001003D00000051
:1005B0003D0001003C0000003C0000003C00010048
:1005C0003B0000003B0001003A0000003A0001003F
:1005D0003900000039000100380000003800000038
:1005E000380001003700000037000100360000002D
:1005F0003600000036000100350000003500000024
:100600003500010034000000340000003400010017
:10061000330000003300000033000100320000000E
:100620003200000032000100310000003100000003
:1006300031000100300000003000000030000100F7
:100640002F0000002F0000002F0000002F000100ED
:100650002E0000002E0000002E0001002D000000E2
:100660002D0000002D0000002D0001002C000000D6
:100670002C0000002C0000002C0001002B000000CA
:100680002B0000002B0000002B0001002A000000BE
:100690002A0000002A0000002A00010029000000B2
:1006A00029000000290000002900000029000100A5
:1006B000280000002800000028000000280000009A
:1006C000280001002700000027000000270000008C
:1006D000270000002700010026000000260000007F
:1006E0002600000026000000260001002500000072
:1006F0002500000025000000250000002500000066
:100700002500010024000000240000002400000057
:10071000240000002400010023000000230000004A
:10072000230000002300000023000000230000003D
:10073000230001002200000022000000220000002F
:100740002200000022000000220001002100000021
:100750002100000021000000210000002100000015
:100760002100000021000100200000002000000006
:1007700020000000200000002000000020000000F9
:1007800020000000200001001F0000001F000000EA
:100790001F0000001F0000001F0000001F000000DD
:1007A0001F0001001E0000001E0000001E000000CF
:1007B0001E00000024F4D43050C38E20C2A2401783
:1007C000828B7011127A910D816CD90AA861E108AF
:1007D000C7586607615143061E4B5D05C145A70416
:1007E0001A411104093D9803713931034036DB0287
:1007F00065339102D4305402802E1D02632CEE0129
:10080000752AC501B028A001102781018F25640138
:100810002B244B01E0223401AC211F018D200D015E
:10082000801FFC00841EED00971DDF00B81CD20065
:10083000E61BC600201BBC00641AB200B219A80057
:100840000A19A0006A189900D117910040178B006F
:10085000B516840031167E00B31579003A15730081
:10086000C7146F0058146A00EE1366008813630003
:1008700025135E00C7125B006C125700151254005E
:10088000C111510070114F0021114B00D6104900C9
:100890008D1047004610440002104200C00F400077
:1008A000800F3E00420F3C00060F3B00CB0E38008D
:1008B000930E37005C0E3500270E3400F30D320026
:1008C000C10D3100900D3000600D2E00320D2D0055
:1008D000050D2C00D90C2B00AE0C2900850C29002D
:1008E0005C0C2700350C27000E0C2600E80B2400BA
:1008F000C40B2400A00B23007D0B23005A0B210006
:10090000390B2100180B2000F80A1F00D90A1E001D
:10091000BB0A1E009D0A1D00800A1D00630A1C0000
:10092000470A1B002C0A1B00110A1A00F7091A00BB
:10093000DD091900C4091900AB0919009209170053
:100940007B091800630917004C09160036091600C8
:10095000200916000A091500F5081500E008140022
:10096000CC081400B8081400A40814009008130060
:100970007D0812006B081300580812004608120088
:100980003408110023081100120811000108110099
:10099000F0071000E0071000D0071000C00710009B
:1009A000B0070F00A107100091070E0083070F008A
:1009B00074070F0065070E0057070E0049070E0069
:1009C0003B070D002E070E0020070D0013070D003A
:1009D00006070D00F9060C00ED060D00E0060C0000
:1009E000D4060C00C8060C00BC060C00B0060C00B7
:1009F000A4060B0099060C008D060B0082060B0066
:100A000077060B006C060B0061060A0057060B0008
:100A10004C060A0042060A0038060A002E060A00A2
:100A200024060A001A060A001006090007060A0032
:100A3000FD050900F4050900EB050900E2050900C0
:100A4000D9050900D0050900C7050900BE05090040
:100A5000B5050800AD050800A50509009C050800BE
:100A6000940508008C050800840508007C05080032
:100A7000740508006C050700650508005D050700A2
:100A8000560508004E050700470507004005080009
:100A900038050700310507002A0507002305070070
:100AA0001C050600160507000F05070008050600CF
:100AB00002050700FB040600F5040700EE0406002B
:100AC000E8040600E2040700DB040600D504060083
:100AD000CF040600C9040600C3040600BD040600D6
:100AE000B7040600B1040500AC040600A604060025
:100AF000A00405009B040600950405009004060070
:100B00008A04050085040500800406007A040500B7
:100B100075040500700405006B04050066040500FB
:100B2000610405005C04050057040500520405003B
:100B30004D04050048040500430405003E0404007C
:100B40003A04050035040500300404002C040500B7
:100B500027040400230405001E0404001A040400F2
:100B600016040500110404000D0404000904050026
:100B70000404040000040400FC030400F80304005F
:100B8000F4030400F0030400EC030400E803040091
:100B9000E4030400E0030400DC030400D8030400C1
:100BA000D4030400D0030400CC030400C8030300F2
:100BB000C50303002C116E120B19F42EE431FF460D
:100BC0005647B069EFE8FCE085EC90E101C0819305
:100BD000EF3FF907E0F3D9F311241FBECFEFD0E1C7
:100BE000DEBFCDBF11E0A0E0B1E0E0EFFCED02C060
:100BF00005900D92A431B107D9F71CE0A4E1B1E052
:100C000001C01D92AF38B107E1F71BE0C4ECDBE097
:100C100004C02297FE010E94FE6DC43BD107C9F7B4
:100C20000E9457190C94766E0C940000A0E3B0E07B
:100C3000ECE1F6E00C94C76D298F3A8F4B8F5C8FF7
:100C40006D8F7E8F8F8F98A3A98ABA8ACB8ADC8A10
:100C5000ED8AFE8A0F8B188F098D1A8D2B8D3C8D96
:100C600009A31AA32BA33CA3680179018FEF9FEF7F
:100C7000A0E0B0E0C822D922EA22FB228901222783
:100C8000332709A71AA72BA73CA709891A892B89FB
:100C90003C890DA31EA32FA338A748015901882220
:100CA0009922AA22BB22290166247724C501B40116
:100CB000A70196010E94426D6DA77EA78FA798ABF2
:100CC000C301B2010E94426D6B017C01C501B401F8
:100CD00029A53AA54BA55CA50E94426D4B015C017C
:100CE000C301B2010E94426DAB01BC01C80CD91C0A
:100CF000EA1CFB1C0DA51EA52FA538A9C901AA2712
:100D0000BB27C80ED91EEA1EFB1EC814D904EA046C
:100D1000FB0420F4405050406F4F7F4FC701AA277B
:100D2000BB27840F951FA61FB71F8D839E83AF839C
:100D3000B8877601DD24CC244DA55EA56FA578A9E2
:100D400060707070C40ED51EE61EF71EC982DA826E
:100D5000EB82FC821C2D0A818B804C808D878E81DA
:100D60008E878F818F878885888B2D893E894F89D3
:100D7000588D69A17AA18BA19CA10E94426D6B0143
:100D80007C012D8D3E8D4F8D58A16DA17EA18FA12F
:100D900098A50E94426DDC01CB01C80ED91EEA1E47
:100DA000FB1E8D859E85AF85B8898C0D9D1DAE1D62
:100DB000BF1D8D879E87AF87B88B682F7E85212FBB
:100DC000302F482D542D8F859889E096E0E10C94C2
:100DD000E36D0F93CF93DF93CDB7DEB760970FB678
:100DE000F894DEBF0FBECDBF002309F456C029879B
:100DF0003A874B875C876D877E878F87988B20E249
:100E0000201B8D859E85AF85B889AC01BD0112166A
:100E1000B4F0770F440B542FBA014D835E836F8378
:100E20007887332727FD3095309521953F4F04C0B3
:100E3000B595A795979587952A95D2F722C0002E4C
:100E400004C075956795579547950A94D2F74D83D9
:100E50005E836F83788704C0880F991FAA1FBB1F0A
:100E60002A95D2F749855A856B857C8504C076958D
:100E70006795579547950A95D2F7842B952BA62B06
:100E8000B72B89839A83AB83BC8329813A814B81B9
:100E90005C816D817E818F81988560960FB6F89414
:100EA000DEBF0FBECDBFDF91CF910F91089580912E
:100EB000410190914201009729F481E0809348011B
:100EC00080E00895809143019091440120913F0179
:100ED00030914001B9010E94616DE0914501F091AE
:100EE0004601E80FF91F809143019091440101965A
:100EF000B9010E94616D90934401809343018091F8
:100F000041019091420101979093420180934101E8
:100F100080810895F894209141013091420180919F
:100F20003F0190914001821B930B78940895809328
:100F30003E01089580913E01089520914101309134
:100F4000420181E02115310509F080E00895482F24
:100F5000809141019091420160913F017091400167
:100F600086179707E8F42091410130914201809162
:100F7000430190914401820F931F0E94616DE091A3
:100F80004501F0914601E80FF91F4083809141012E
:100F900090914201019690934201809341010895FE
:100FA00081E0EFE3F1E0808708950E9457070895FC
:100FB000CF930E945707C82F0E945707982F8C2F56
:100FC000CF9108951F93CF93DF9300D0CDB7DEB7B5
:100FD0000E9457078A830E94570789830E945707F8
:100FE000182F0E945707982F6A817981812F0F90BF
:100FF0000F90DF91CF911F91089589E492E060E016
:1010000070E00E94CB19FC011082118212821382BF
:1010100089E492E061E070E00E94CB19FC0110824B
:1010200011821282138289E492E062E070E00E94F1
:10103000CB19FC01108211821282138289E492E0A2
:1010400063E070E00E94CB19FC01108211821282D1
:10105000138289E492E064E070E00E94CB19FC0105
:101060001082118212821382109242011092410169
:1010700010924401109243011092470110924801CE
:10108000109234011092330186E291E063E00E94F5
:10109000B14780FF04C081E080931401089510924D
:1010A00014010895AF92BF92DF92EF92FF920F93D7
:1010B0001F93CF93DF930F92CDB7DEB7D82E7B016E
:1010C0000E94352F882371F10E940E2F5C010E942F
:1010D0000B2F8C01C5010E94284A0E94E131682F24
:1010E000C5010E946E4AC5016D2D0E946E4A0E9484
:1010F000482F02C00E94A42F0E949F2F8823D1F363
:10110000F80182A1882341F4C80161E00E94084AE5
:10111000F701808381E001C080E089830E94452F30
:10112000898101C080E00F90DF91CF911F910F91D5
:10113000FF90EF90DF90BF90AF900895CF93DF9333
:101140000F92CDB7DEB784E2BE016F5F7F4F0E9482
:101150005208882319F0998181E090FF80E00F9078
:10116000DF91CF910895CF93DF930F92CDB7DEB784
:1011700083E2BE016F5F7F4F0E945208882321F0F7
:1011800081E09981992309F480E00F90DF91CF915C
:1011900008953F924F925F926F927F928F929F92AB
:1011A000AF92BF92CF92DF92EF92FF920F931F9375
:1011B000CF93DF93CDB7DEB7C25ED0400FB6F894C1
:1011C000DEBF0FBECDBF80913A0190913B01A0914F
:1011D0003C01B0913D010196A11DB11D80933A01E2
:1011E00090933B01A0933C01B0933D010E94291BC9
:1011F000882309F53FC0209141013091420180913F
:10120000430190914401820F931F0E94616DE09110
:101210004501F0914601E80FF91F4083809141019B
:10122000909142010196909342018093410104C044
:101230000093470101C001E080914101909142017A
:1012400020913F01309140012817390799F00E9401
:101250007C1B882379F00E947F1B482F80914101DD
:101260009091420160913F0170914001861797076C
:1012700010F2DECF80913E01882329F08091350164
:10128000882309F4D0C780913301909134018330D1
:10129000910581F40E94FD1C882341F08FE191E0CB
:1012A0000E94CD67882331F00E94792D109234017D
:1012B0001092330180913301909134018130910576
:1012C00041F40E94FD1C882321F4109234011092F5
:1012D000330180913301909134018230910551F4B2
:1012E00089E291E00E94CD67882321F010923401B9
:1012F0001092330180913301909134018430910533
:1013000071F485E191E00E94CD67882321F40E9469
:101310009E08882321F010923401109233018091AD
:101320003301909134018530910571F485E191E0AC
:101330000E94CD67882321F40E94B308882321F0FE
:10134000109234011092330180911401882309F422
:101350006AC08091330190913401009709F063C015
:1013600080913501882309F05EC080914101909100
:101370004201009709F457C78091410190914201C1
:10138000009721F481E08093480148C08091430197
:101390009091440160913F01709140010E94616D04
:1013A000E0914501F0914601E80FF91F80818138F5
:1013B000D1F18B38C1F18E38B1F18238A1F18C387E
:1013C00091F1883859F58091410190914201853021
:1013D000910520F1809143019091440120913F01BA
:1013E00030914001E0914501F09146010296B9012A
:1013F0000E94616D8E0F9F1FDC018C918D3099F0E2
:1014000080914301909144010296B9010E94616D5F
:101410008E0F9F1FFC0180818A3029F00E94985412
:10142000882309F400C7CE018F549F4F0E946C1986
:101430008091330190913401009709F0F4C68091B6
:10144000410190914201009709F4EDC6809143015A
:101450009091440120913F0130914001E09145017C
:10146000F0914601B9010E94616D8E0F9F1FDC0152
:101470000C91013809F052C080913A0190913B01E2
:10148000A0913C01B0913D018093360190933701CA
:10149000A0933801B09339018091410190914201AC
:1014A0008131910508F4BFC60E94570781E090E0A2
:1014B00090933401809333010E94E2076B017C0119
:1014C0000E94E2072B013C010E94E2074B015C01F4
:1014D0000E94E207C752DF4F688379838A839B8328
:1014E000C95DD04080913501882309F09CC6CE01AA
:1014F00083569F4FB701A6019301820175016401D4
:101500000E94A119CE0183569F4FC752DF4F4881D9
:1015100059816A817B81C95DD04088C00B3809F050
:1015200088C080913A0190913B01A0913C01B0911B
:101530003D018093360190933701A0933801B09319
:10154000390180914101909142018931910508F45E
:101550006AC60E94570781E090E09093340180931F
:1015600033010E94E2074B015C010E94E2078B01FC
:101570009C01CF51DF4F2883C15ED040CE51DF4F59
:101580003883C25ED0400E94E2072B013C010E94DA
:10159000E207C752DF4F688379838A839B83C95DE3
:1015A000D0400E94E2076B017C010E94E207C35217
:1015B000DF4F688379838A839B83CD5DD0408091A0
:1015C0003501CF51DF4F2881C15ED040CE51DF4F72
:1015D0003881C25ED040882309F025C600D000D0F3
:1015E000EDB7FEB7C182D282E382F482CE01875783
:1015F0009F4FB501A40173016201C752DF4F88807C
:101600009980AA80BB80C95DD0400E946D190F905F
:101610000F900F900F90CE0187579F4FC352DF4F0F
:10162000488159816A817B81CD5DD0400E94C72B62
:10163000FAC50E3809F08EC080913A0190913B01B5
:10164000A0913C01B0913D01809336019093370108
:10165000A0933801B09339018091410190914201EA
:101660008A31910508F4DFC50E94570781E090E0B8
:1016700090933401809333010E94E2074B015C0197
:101680000E94E2078B019C01CF51DF4F2883C15E8E
:10169000D040CE51DF4F3883C25ED0400E94E20777
:1016A0002B013C010E94E207C752DF4F6883798318
:1016B0008A839B83C95DD0400E94E2076B017C0155
:1016C0000E94E207C352DF4F688379838A839B833A
:1016D000CD5DD0400E94D507382E80913501CF5185
:1016E000DF4F2881C15ED040CE51DF4F3881C25ECE
:1016F000D040882309F097C500D000D0ADB7BEB761
:101700001196CD92DD92ED92FC921497CE018B58FA
:101710009F4FB501A40173016201C752DF4F88805A
:101720009980AA80BB80C95DD0400E946D190F903E
:101730000F900F900F90CE018B589F4FC352DF4FE9
:10174000488159816A817B81CD5DD040232D0E94E3
:10175000AC2869C50638A1F48091410190914201FD
:101760008230910508F45FC50E9457070E94570711
:1017700090913501992309F056C50E94DE3153C579
:101780000938D9F580913A0190913B01A0913C0133
:10179000B0913D018093360190933701A0933801B9
:1017A000B0933901809141019091420182309105BD
:1017B00008F439C50E9457070E945707E82EEE1C0F
:1017C000EE24EE1C00E010E0C82EDD24C601002E41
:1017D00002C0959587950A94E2F780FF08C0809132
:1017E0003501882321F4802F6E2D0E943D2E0F5F3E
:1017F0001F4F0430110551F716C5023841F580918D
:101800004101909142018D30910508F40CC50E9470
:1018100057070E94E2074B015C010E94E2072B017F
:101820003C010E94E2076B017C0180913501882315
:1018300009F0F9C4CE018F599F4FB501A40193015E
:1018400082010E94A119CE018F599F4F4EC00C38C2
:1018500009F04EC08091410190914201853191057E
:1018600008F4E1C40E9457070E94E2076B017C0163
:101870000E94E2072B013C010E94E2074B015C0140
:101880000E94E207C752DF4F688379838A839B8374
:10189000C95DD0400E94E207DC01CB0120913501F7
:1018A000222309F0C0C400D000D0EDB7FEB7818379
:1018B0009283A383B483CE01835B9F4FB701A601BC
:1018C0009301820175016401C752DF4F88809980BE
:1018D000AA80BB80C95DD0400E946D190F900F9007
:1018E0000F900F90CE01835B9F4F0E948C1D9BC475
:1018F000053811F5809141019091420185309105A3
:1019000008F491C482E090E0909334018093330115
:101910000E9457070E94E20720913501222309F017
:1019200082C428EE33E040E050E00E94426DAB01FB
:10193000BC0189E291E065C0802F83588230B8F500
:1019400080914101909142018830910508F46BC467
:101950000E9457070E94D507B82E0E94E2076B012C
:101960007C010E94D80723E030E0309334012093BB
:101970003301BC0180E090E020E432E44FE050E02D
:101980000E94426DAB01BC018FE191E00E94AC6707
:1019900080913501882309F046C481E0043809F0BC
:1019A00080E06B2DA70196010E94B12D3CC4073841
:1019B00059F580914101909142018630910508F4DA
:1019C00032C484E090E090933401809333010E940C
:1019D00057070E9457070E94D8070E94D8072091F6
:1019E0003501222309F01FC4BC0180E090E020E40F
:1019F00032E44FE050E00E94426DAB01BC0185E152
:101A000091E00E94AC670FC40D3859F480914101F8
:101A1000909142018630910508F405C485E090E07C
:101A2000D2CF0F3809F046C0809141019091420118
:101A30008230910508F4F7C30E9457070E94D5072A
:101A400090913501992309F0EEC370E6E72EF12C51
:101A500000E010E0C82EDD24C601002E02C09595DE
:101A600087950A94E2F780FF1BC0CE01C9960E94B9
:101A7000F01DCE01C996B8010E94C319FC018081F6
:101A80009181A281B38189839A83AB83BC83F894CB
:101A9000CE010196B70144E050E00E945E6E78945A
:101AA0000F5F1F4F84E090E0E80EF91E043011052F
:101AB00099F6B9C3003909F05AC08091410190915B
:101AC00042018230910508F4AEC30E9457070E947C
:101AD000D507E82ECE0185960E946C1980913501BC
:101AE000882351F0DE019596E9E4F2E084E101906B
:101AF0000D928150E1F70FC0CE018B539F4F0E9492
:101B0000F01DDE019596FE01EB53FF4F84E101903D
:101B10000D928150E1F760E6C62ED12C00E010E076
:101B2000FF24C701002E02C0959587950A94E2F71D
:101B300080FF0CC0F894CE018596B8010E94CB19A5
:101B4000B60144E050E00E944E6E78940F5F1F4F44
:101B5000A4E0B0E0CA0EDB1E0430110511F780913D
:101B60003501882309F05FC3CE018596BECE0838C3
:101B700009F09FC08091410190914201843091050C
:101B800008F451C3809143019091440100914101B7
:101B9000109142010396B9010E94616D8E0F9F1F43
:101BA000FC01808190E004960817190708F43BC3F4
:101BB000809135018823B1F00E9457070E94570792
:101BC0000E9457070E94D507082F10E0CC24DD247F
:101BD00005C00E9457070894C11CD11CC016D1062D
:101BE000C4F321C30E94352F882309F41CC30E942B
:101BF0000E2F6C010E94284A0E9457070E94570727
:101C0000682FC6010E946E4A0E945707B82EC6016F
:101C10006B2D0E946E4A0E94D507882E992455E2AA
:101C2000E52EF12CEC0EFD1E270100E010E008155A
:101C300019055CF40430110541F00E945707D201E8
:101C40008D932D010F5F1F4FF2CF00E010E00815BC
:101C50001905ACF40430110591F0F70161917F0191
:101C6000C6010E946E4A0F5F1F4FF1CF0E945707B7
:101C7000682FC6010E946E4A0F5F1F4F02C004E02A
:101C800010E00815190594F3FDE0BF1669F48114FE
:101C9000910411F09DA101C091E081E0992309F424
:101CA00080E00E94F12E02C00E94482F0E94452F22
:101CB000BAC2093CC9F5809141019091420181313C
:101CC000910508F4B0C20E9457070E94E2076B0119
:101CD0007C010E94E2074B015C010E94E2072B019C
:101CE0003C010E94E2078B019C018BE391E0B7016C
:101CF000A601CF51DF4F2883C15ED040CE51DF4FC8
:101D00003883C25ED0400E946C488FE391E0B501F9
:101D1000A4010E946C4883E491E0B301A2010E94F7
:101D20006C4887E491E03BC00B3C09F047C08091D0
:101D30004101909142018131910508F474C20E94E1
:101D400057070E94E2076B017C010E94E2074B01EA
:101D50005C010E94E2072B013C010E94E2078B011B
:101D60009C0187E291E0B701A601CF51DF4F2883A4
:101D7000C15ED040CE51DF4F3883C25ED0400E945A
:101D80006C488BE291E0B501A4010E946C488FE29F
:101D900091E0B301A2010E946C4883E391E0CF512E
:101DA000DF4F2881C15ED040CE51DF4F3881C25E07
:101DB000D040B901A8010E946C4835C20C3CE9F43E
:101DC00080914101909142018930910508F42BC224
:101DD0000E9457070E94E2076B017C010E94E20704
:101DE0004B015C018BE491E0B701A6010E946C48B5
:101DF0008FE491E0B501A401DECF0D3C29F580917F
:101E00004101909142018D30910508F40CC20E946D
:101E100057070E94E2076B017C010E94E2074B0119
:101E20005C010E94E2072B013C0187E591E0B701CC
:101E3000A6010E946C488BE591E0B501A4010E94C7
:101E40006C4883E691E06EC00E3C09F045C00091FD
:101E50004101109142010530110508F4E4C10E94CE
:101E600057070E94E207AB01BC018BE691E00E949C
:101E70006C480131110508F4D6C10E94E2076B01DC
:101E80007C010E94E2074B015C010E94E2072B01EA
:101E90003C010E94E2078B019C0181E891E0B701BF
:101EA000A601CF51DF4F2883C15ED040CE51DF4F16
:101EB0003883C25ED0400E946C4885E891E0B5014D
:101EC000A4010E946C4889E891E0B301A2010E943C
:101ED0006C488DE891E063CF0F3C39F5809141016A
:101EE000909142018D30910508F49DC10E945707E1
:101EF0000E94E2076B017C010E94E2074B015C013A
:101F00000E94E2072B013C0187E691E0B701A601A0
:101F10000E946C488FE591E0B501A4010E946C48D5
:101F20008FE691E0B301A20146CF003D89F4809194
:101F30004101909142018530910508F474C10E94DD
:101F400057070E94E207AB01BC0183E591E033CF64
:101F5000013DB9F480914101909142018230910597
:101F600008F461C10E9457070E94D507682F86E2D6
:101F700091E00E94686E85EC90E060E00E94686EDF
:101F800052C1083DC9F580914101909142018131D2
:101F9000910508F448C10E9457070E94E2076B01AF
:101FA0007C010E94E2074B015C010E94E2072B01C9
:101FB0003C010E94E2078B019C0182E991E0B7019C
:101FC000A601CF51DF4F2883C15ED040CE51DF4FF5
:101FD0003883C25ED0400E946C4886E991E0B5012A
:101FE000A4010E946C488AE991E0B301A2010E9419
:101FF0006C488EE991E0D3CE023D69F480914101B5
:10200000909142018531910508F40DC10E94570756
:102010000E94E2070CC0033D79F480914101909148
:1020200042018131910508F4FEC00E9457070E94C9
:10203000E2070E94E2070CC0043D79F4809141015F
:10204000909142018930910508F4EDC00E94570734
:102050000E94E2070E94E207E6C0053DC1F48091BC
:102060004101909142018230910508F4DCC00E9448
:1020700057070E94D507682F80913501882309F002
:10208000D2C0F8948AE890E00E94686EBFC0063D16
:1020900089F480914101909142018430910508F4C6
:1020A000C2C00E9457070E94D5070E94D5070E9410
:1020B000D507B9C0073D09F0ABC0809141019091AF
:1020C00042018131910508F4AEC00E9457070E9479
:1020D000E207DC01CB016C017D01FF0CCC08DC2C9C
:1020E00076019C01AD016C2D7C2D8C2D9C2DE0E1A9
:1020F000AE2EF7E2BF2ECC24DD24EE24FF2400E038
:1021000010E00E9416062D8F3E8F4F8F58A369A3B3
:102110007AA38BA39CA30E94E207DC01CB016C0194
:102120007D01FF0CCC08DC2C76019C01AD016C2DEF
:102130007C2D8C2D9C2DCC24DD24EE24FF240E94AC
:1021400016062D8B3E8B4F8B588F698F7A8F8B8F16
:102150009C8F0E94E207DC01CB016C017D01FF0C2A
:10216000CC08DC2C76019C01AD016C2D7C2D8C2DD6
:102170009C2DCC24DD24EE24FF240E9416062D87FE
:102180003E874F87588B698B7A8B8B8B9C8B0E94F9
:10219000E207DC01CB016C017D01FF0CCC08DC2CDB
:1021A00076019C01AD016C2D7C2D8C2D9C2DCC24B9
:1021B000DD24EE24FF240E9416062D833E834F83E8
:1021C000588769877A878B879C87F894CE014D96CC
:1021D0006BE870E048E050E00E945E6ECE014596EC
:1021E00063E970E048E050E00E945E6ECE010D961B
:1021F0006BE970E048E050E00E945E6ECE0105960B
:1022000063EA70E048E050E00E945E6E78940BC094
:10221000083949F40E94D807F89481E00E9492138B
:1022200078940E94C313CE51DF4F0FB6F894DEBFEF
:102230000FBECDBFDF91CF911F910F91FF90EF9017
:10224000DF90CF90BF90AF909F908F907F906F90D6
:102250005F904F903F90089580E091E0909340010F
:1022600080933F011092420110924101109244016B
:102270001092430189E491E09093460180934501D7
:10228000109247011092480189E492E00E946C1973
:1022900089E291E00E94A8678FE191E00E94A8671F
:1022A00085E191E00E94A86708956F927F928F92D6
:1022B0009F92AF92BF92CF92DF92EF92FF920F93D5
:1022C0001F93CF93DF93CDB7DEB764970FB6F89423
:1022D000DEBF0FBECDBF8C016B01FC018081882366
:1022E00009F4E6C04801C80160E00E94084A982F3E
:1022F0009077903709F0DCC08037C9F4C6010E949E
:10230000284A31E0E32EF12C0BC0C4016E2D0E944F
:10231000084A682FC6010E946E4A0894E11CF11C0D
:10232000F801808190E0E816F9067CF391C08137CE
:1023300009F4BEC0823709F4BBC0833709F080C0FE
:102340000E940E2F5C010E940B2F3C01C5010E94D0
:10235000284A21E0E22EF12C0BC0C4016E2D0E9410
:10236000084A682FC5010E946E4A0894E11CF11CBE
:10237000F801808190E0E816F9067CF38E01055F94
:102380001F4FC8010E94A867C80140E553EC60E0F8
:1023900070E00E94AC67E02E012F0FC08E2D902FB1
:1023A0000E94CD67882349F0C60168E80E946E4A02
:1023B0008AEB96E062E070E026C00E94352F882309
:1023C00069F38E010F5F1F4FC8010E94A867C80103
:1023D00040E553EC60E070E00E94AC670E94482F3B
:1023E0000E94452FE02E012F13C08E2D902F0E94AA
:1023F000CD67882359F0C60167E80E946E4A8AEBD0
:1024000096E061E070E00E947C4522C00E94A42F0B
:102410000E949F2F882349F300E010E00AC0C30107
:10242000602F0E94084A682FC6010E946E4A0F5F03
:102430001F4FF301808190E00817190784F308C04B
:10244000843741F40E94FD07C60161E80E946E4A8C
:1024500081E02FC08637A1F4C80161E00E94084ADC
:10246000E82EC80162E00E94084A682FEE2029F495
:102470008AEB96E070E00E947C45C60161E816C0D8
:102480008737B1F4C80161E00E94084A082FC601ED
:1024900061E80E946E4A002339F48AEB96E00E94BC
:1024A0002B46682FC60102C0C60160E00E946E4A3A
:1024B00080E064960FB6F894DEBF0FBECDBFDF910B
:1024C000CF911F910F91FF90EF90DF90CF90BF9031
:1024D000AF909F908F907F906F9008958DE592E0E0
:1024E0000E94204A08950F931F9389E890E060E0CE
:1024F0000E94686E8BE890E000E71BE524EF35E66C
:102500004BE150E060E070E00E94454883E990E0D4
:1025100024EF35E64BE150E060E070E00E94454872
:102520008BE990E000E010E02DED3EE049EE52E056
:1025300060E070E00E94454883EA90E005EE1EEB03
:102540002DEA36EF44E750E060E070E00E94454835
:102550008BEA90E02DEA36EF44E750E060E070E06F
:102560000E94454886E291E063E00E94686E87E23F
:1025700091E040EA50E060E070E00E946C488BE23D
:1025800091E040EA50E060E070E00E946C488FE229
:1025900091E048E050E060E070E00E946C4883E326
:1025A00091E044E650E060E070E00E946C4887E310
:1025B00091E044E650E060E070E00E946C488BE3FC
:1025C00091E044EF51E060E070E00E946C488FE3DE
:1025D00091E044EF51E060E070E00E946C4883E4D9
:1025E00091E044E650E060E070E00E946C4887E4CF
:1025F00091E040E65AEE60E070E00E946C488BE4A7
:1026000091E040ED57E060E070E00E946C488FE49C
:1026100091E040EA5FE060E070E00E946C4883E592
:1026200091E04CE250E060E070E00E946C4887E589
:1026300091E040E050E060E070E00E946C488BE583
:1026400091E040E050E060E070E00E946C488FE56F
:1026500091E044E853E060E070E00E946C4883E65B
:1026600091E042E050E060E070E00E946C4887E654
:1026700091E042E553E060E070E00E946C488BE638
:1026800091E04AE350E060E070E00E946C488FE621
:1026900091E048EC50E060E070E00E946C4881E816
:1026A00091E040E253E060E070E00E946C4885E811
:1026B00091E048E250E060E070E00E946C4889E8F8
:1026C00091E044E050E060E070E00E946C488DE8EA
:1026D00091E041E050E060E070E00E946C4882E9E7
:1026E00091E04CE251E060E070E00E946C4886E9C5
:1026F00091E04CE251E060E070E00E946C488AE9B1
:1027000091E049E150E060E070E00E946C488EE9A1
:1027100091E04CE251E060E070E00E946C481F9153
:102720000F9108950F931F93CF93C82F82E090E0ED
:1027300062E00E94686E83E090E06FE10E94686E44
:1027400080E290E060E00E94686E0E947312CC23E9
:10275000B1F483EB90E000E010E020E030E040E0F6
:1027600050E060E070E00E9445488BEB90E020E094
:1027700030E040E050E060E070E00E944548CF91DA
:102780001F910F91089581E080930F010895CF92DA
:10279000DF92EF92FF920F931F93CF93DF93EC01A1
:1027A0008B0188818823A9F16E01CE0160E00E942F
:1027B000084A87FF2EC00E942C1B882341F0CE01BF
:1027C0000E942F1BC80161E80E946E4A20C0F89445
:1027D000C8810E948A072C2F30E08217930748F4A3
:1027E00011C0C6016C2F0E94084A0E94A7072196BB
:1027F00003C0C0E0D0E07901CE15DF0594F3C80135
:1028000061E802C0C80162E80E946E4A789481E0E3
:1028100001C080E0DF91CF911F910F91FF90EF9069
:10282000DF90CF900895AF92BF92CF92DF92EF9258
:10283000FF920F931F93CF93DF93CDB7DEB76497CB
:102840000FB6F894DEBF0FBECDBF6B010E943D23D3
:10285000F894CE0101960E94AE22C60161E80E9462
:102860006E4ACE01019660E070E00E94C319FC013F
:102870004081518162817381C6010E94874ACE01E5
:10288000019661E070E00E94C319FC014081518112
:1028900062817381C6010E94874ACE01019662E07F
:1028A00070E00E94C319FC014081518162817381F3
:1028B000C6010E94874AA2E0EA2EF12C60E097014F
:1028C000220F331F890143E0000F111F4A95E1F7E2
:1028D000021B130B0654194FA62EAA0CAA0CC801F2
:1028E0000E940367882319F082E0B82E01C0BB2440
:1028F000C8010E9422676B2D6A29682B0894E108A1
:10290000F108FFEFEF16FFEFFF06C9F6C6010E94C0
:102910006E4A789464960FB6F894DEBF0FBECDBFB2
:10292000DF91CF911F910F91FF90EF90DF90CF90AB
:10293000BF90AF900895AF92BF92CF92DF92EF9287
:10294000FF920F931F93CF93DF93CDB7DEB76497BA
:102950000FB6F894DEBF0FBECDBF6B010E943D23C2
:10296000F894CE0101960E94AE22C60161E80E9451
:102970006E4ACE01019660E070E00E94C319FC012E
:102980004081518162817381C6010E94874ACE01D4
:10299000019661E070E00E94C319FC014081518101
:1029A00062817381C6010E94874ACE01019662E06E
:1029B00070E00E94C319FC014081518162817381E2
:1029C000C6010E94874ACE01019663E070E00E9432
:1029D000C319FC014081518162817381C6010E944B
:1029E000874ACE01019664E070E00E94C319FC01A1
:1029F0004081518162817381C6010E94874A23E030
:102A0000E22EF12C60E09701220F331F890183E051
:102A1000000F111F8A95E1F7021B130B0654194F83
:102A2000A62EAA0CAA0CC8010E940367882319F0DD
:102A3000B2E0BB2E01C0BB24C8010E9422676B2DEF
:102A40006A29682B0894E108F108FFEFEF16FFEF01
:102A5000FF06C9F6C60170E00E94714A7894649638
:102A60000FB6F894DEBF0FBECDBFDF91CF911F919F
:102A70000F91FF90EF90DF90CF90BF90AF900895AF
:102A8000DF92EF92FF920F931F93CF93DF93CDB717
:102A9000DEB76F970FB6F894DEBF0FBECDBF8C01C7
:102AA0007B01CB0161E80E946E4AC80161E00E948F
:102AB000084A882349F00E94DB1CBC01009721F0E2
:102AC000C7010E946E4A20C0CE0101966FE10E94AC
:102AD000411ABC018981882329F06115710511F41F
:102AE0008E3291F3C7010E946E4A8E010F5F1F4F15
:102AF0003FE1D32EF80161918F01662329F0C701D0
:102B00000E946E4ADA94B1F7C70160E00E946E4AF3
:102B10006F960FB6F894DEBF0FBECDBFDF91CF9199
:102B20001F910F91FF90EF90DF900895CF92DF9269
:102B3000EF92FF920F931F93CF93DF93CDB7DEB742
:102B40002A970FB6F894DEBF0FBECDBF6C018E0181
:102B50000F5F1F4FC8010E94A867C80140E553ECF2
:102B600060E070E00E94AC67E02E012F11C08E2D56
:102B7000902F0E94CD67882359F0C60167E80E9414
:102B80006E4A8AEB96E062E070E00E947C453EC0AF
:102B90000E94352F882359F30E940E2F8C010E942A
:102BA0000B2F7C01C8010E94284A0E94E131682F46
:102BB000C8010E946E4AC80167E10E946E4A0E94E5
:102BC000482F0E94452F02C00E94A42F0E949F2FD1
:102BD0008823D1F3F70182A1843081F4C60167E82C
:102BE0000E946E4A13C0C701602F0E94084A682FD6
:102BF000C6010E946E4A0F5F1F4F02C000E010E046
:102C0000F701808190E0081719076CF32A960FB638
:102C1000F894DEBF0FBECDBFDF91CF911F910F9112
:102C2000FF90EF90DF90CF9008958F929F92AF9298
:102C3000BF92CF92DF92EF92FF920F931F93CF93A9
:102C4000DF93CDB7DEB72A970FB6F894DEBF0FBE7D
:102C5000CDBF7C016B01FC018081823048F4CB0147
:102C600060E80E946E4A8AEB96E068E070E01EC061
:102C70008E010F5F1F4FC8010E94A867C80140E581
:102C800053EC60E070E00E94AC67A02E012F11C0F1
:102C90008A2D902F0E94CD67882359F0C60167E8DE
:102CA0000E946E4A8AEB96E062E070E00E947C45EA
:102CB00047C00E94352F882359F30E940E2F4C01E4
:102CC0000E940B2F5C01C4010E94284A01E010E021
:102CD0000AC0C701602F0E94084A682FC4010E94E1
:102CE0006E4A0F5F1F4FF701808190E008171907A8
:102CF00084F30E94482F0E94452F02C00E94A42FF7
:102D00000E949F2F8823D1F3F50182A1843081F4A2
:102D1000C60167E80E946E4A13C0C501602F0E9479
:102D2000084A682FC6010E946E4A0F5F1F4F02C0FB
:102D300000E010E0F501808190E0081719076CF3BE
:102D40002A960FB6F894DEBF0FBECDBFDF91CF91AC
:102D50001F910F91FF90EF90DF90CF90BF90AF90B9
:102D60009F908F900895CF93C82F85E892E00E949E
:102D7000261C9C01009759F4CC2319F084E090E0C4
:102D800002C082E090E09093840280938302C901A4
:102D9000CF9108954F925F927F928F929F92AF92C0
:102DA000BF92CF92DF92EF92FF920F931F93CF9338
:102DB000DF93CDB7DEB7A0970FB6F894DEBF0FBE96
:102DC000CDBF8C017B01FC018081882309F46EC199
:102DD000D02EC12EC80160E00E94084A87FD66C15E
:102DE000E82FF0E0EA31F10508F060C1E25CFF4F46
:102DF000EE0FFF1F0590F491E02D0994802F912F85
:102E000061E00E940D4A8B31910540F4C70161E8F1
:102E10000E946E4AC70160E070E007C0C70161E828
:102E20000E946E4AC70161E371E00E94714A40C18D
:102E3000C70161E80E946E4A65E8C62E62E0D62EA0
:102E4000BB248601C701F60161916F010E946E4AA1
:102E5000F8018081882309F42BC1B394FFE1BF16E8
:102E600081F726C10E94C313C70161E8F4C0C701FE
:102E700061E80E946E4A0E948A07AC0160E070E03F
:102E800011C1C801B7010E94131412C1C801B701D2
:102E90000E949B140DC1C70161E80E946E4AC801DF
:102EA00003960E94941C29C0C70161E80E946E4AE3
:102EB0000E94D01BF5C0C70161E80E946E4A45E838
:102EC000A42E42E0B42E51E0852E912C0BC08D2D06
:102ED0009C2D682D0E94084AF50181935F0108949A
:102EE000811C911CF801808190E0881699067CF382
:102EF0001092A30280E00E94B316682FC701ABC0F6
:102F0000C801B7010E944015D3C00E949A0791E002
:102F100089270E949707C7010E949615A5CFC8016F
:102F2000B7010E941516C4C0C70161E80E946E4A2D
:102F3000F8940E94FD1C882351F40E949D07882369
:102F400031F09091970780919607981711F060E003
:102F500001C061E0C7010E946E4A7894A9C0802F29
:102F6000912F61E00E940D4A5C01802F912F63E058
:102F70000E94084A082FCE010196B501402F50E06B
:102F80000E944E6EC70161E80E946E4A4E0108948D
:102F9000811C911CCC24DD2410E009C0F401619156
:102FA0004F01C7010E946E4A0894C11CD11CC01673
:102FB000D106A4F37DC0802F912F61E00E940D4ABD
:102FC000A82E792E802F912F63E00E94084AB82EF8
:102FD000CE0101966A2D772D4B2D50E00E944E6E4A
:102FE0002E010894411C511C882499240B2D10E0BB
:102FF0000CC0682D6C5F8D2D9C2D0E94084AF2013B
:1030000081932F010894811C911C801691068CF3EA
:10301000CE0101966A2D772D4B2D50E00E945E6EF9
:10302000C70161E80E946E4AC7016B2D14C0802F52
:10303000912F61E00E94084A082F80FF02C00E9481
:10304000792D01FF02C00E94FD07C70161E80E94BF
:103050006E4AC70160E00E946E4A2AC0C70161E85B
:103060000E946E4AC70140E050E060E070E00E94BC
:10307000874A0E94112FAB01BC01C7010E94874AF9
:103080000E941A2FAB01BC01C7010E94874A0E940F
:10309000232FAB01BC01C7010E94874A0E942C2F3D
:1030A000AB01BC01C7010E94874A02C080E001C099
:1030B00081E0A0960FB6F894DEBF0FBECDBFDF91C2
:1030C000CF911F910F91FF90EF90DF90CF90BF9025
:1030D000AF909F908F907F905F904F9008958091D8
:1030E0008A0C90918B0C009709F48EC080918A0C09
:1030F00090918B0C8430910509F08CC085C01092A2
:103100000F0180E00E94101984EC92E00E94F467A5
:103110001092A402109285021092840210928302EF
:1031200008958091640C9091650C009709F180914D
:10313000640C9091650C84309105D1F08091C402AB
:10314000882349F484EC92E040E25EE460E070E0C1
:103150000E94AC670DC084EC92E00E94CD6788238A
:1031600039F081E49CE00E94A54984E08093630CDF
:103170008091630C882399F08091630C843029F44A
:103180008AEB96E064E070E004C08AEB96E065E0CC
:1031900070E00E947C4581E49CE00E94B3498091EC
:1031A000640C9091650C84309105A1F584EC92E05B
:1031B0000E94F46787E69CE00E94284A81E49CE034
:1031C00067E67CE00E9455118823A9F481E49CE025
:1031D00067E67CE00E94C713882369F481E49CE0E1
:1031E00067E67CE00E94CA16882329F487E69CE003
:1031F00065E80E946E4A81E49CE00E94B3498DE339
:103200009CE00E944268089580910F01882309F490
:1032100088CF75CF089584EC92E00E94A867089546
:10322000FF920F931F93CF93DF93CDB7DEB72A970B
:103230000FB6F894DEBF0FBECDBF082FF8940E94E2
:103240009F1B0E94FD070E94634778948AEB96E0DB
:10325000602F0E94AC450E94792D0E944B1E0023D6
:10326000B9F08E010F5F1F4FC8010E94A867C80107
:1032700040EA55E266E270E00E94AC67F02E012F52
:103280008F2D902F0E94CD678823D1F30E94953116
:103290000E94543078942A960FB6F894DEBF0FBE81
:1032A000CDBFDF91CF911F910F91FF9008958AEBD1
:1032B00096E00E94061D81E00E94101978940E94F9
:1032C000A42F0E946F180E94C9088AEB96E00E9402
:1032D0003F450E944F2EF3CF08958F929F92AF9259
:1032E000BF92CF92DF92EF92FF920F931F93CF93F3
:1032F000DF93CDB7DEB7FC014083518362837383D4
:103300000483158326833783C086D186E286F386BD
:1033100084869586A686B7868F859889A989BA8975
:10332000808B918BA28BB38BDF91CF911F910F91EB
:10333000FF90EF90DF90CF90BF90AF909F908F90D5
:103340000895CF92DF92EF92FF920F931F93FC01AB
:103350004083518362837383048315832683378379
:10336000C086D186E286F386148615861686178671
:10337000108A118A128A138A1F910F91FF90EF9081
:10338000DF90CF900895660F771F660F771F680F45
:10339000791FCB010895660F771F660F771F680F9F
:1033A000791FCB0108950F9383EF90E461E971E4F5
:1033B00049E952E42FE433E400E00E94803F909317
:1033C000E5028093E402009779F483EF90E461E9E9
:1033D00071E449E952E42FE433E40FEF0E94803FA7
:1033E0009093E5028093E40281E02091E402309121
:1033F000E5022115310509F480E00F9108958091CF
:10340000E4029091E5020E944F379C019093E30201
:103410008093E20281E02115310509F480E00895EE
:10342000CF93DF93CDB7DEB7AB970FB6F894DEBF7F
:103430000FBECDBF8091E2029091E30260E071E0A7
:10344000AE014F5F5F4F0E940D3E8091E20290916E
:10345000E302BE016F5F7F4F0E94FB3C9C01909393
:10346000E1028093E00281E02115310509F480E05A
:10347000AB960FB6F894DEBF0FBECDBFDF91CF91F4
:103480000895CF92DF92EF92FF921F93CF93DF9335
:10349000CDB7DEB7AB970FB6F894DEBF0FBECDBF8A
:1034A0007C0116E0C62EDD240894C108D10826C090
:1034B0008091E0029091E102BE016F5F7F4F0E9418
:1034C0003E3D8823C1F089A18E7191F7F701DE019D
:1034D000119680E090E08C159D0534F42D91222307
:1034E00019F021930196F7CFF701E80FF91F108229
:1034F000009721F005C0F701108202C01150C1F6FB
:1035000080E090E0AB960FB6F894DEBF0FBECDBF63
:10351000DF91CF911F91FF90EF90DF90CF900895B2
:103520000F931F93CF93DF938C01EB010EC0CE015D
:10353000B8010E941D6E009741F48091E0029091C5
:10354000E1020E94983E81E009C08091E0029091E2
:10355000E102BE010E943E3D882349F7DF91CF91F1
:103560001F910F9108950F931F93CF93DF93CDB7C2
:10357000DEB7AB970FB6F894DEBF0FBECDBF8B01A1
:10358000BE016F5F7F4F0E94901A882371F0809177
:10359000E2029091E302BE016F5F7F4F0E94FA3812
:1035A000F8019183808381E001C080E0AB960FB683
:1035B000F894DEBF0FBECDBFDF91CF911F910F9169
:1035C0000895CF93DF93CDB7DEB7AB970FB6F894DE
:1035D000DEBF0FBECDBFBE016F5F7F4F0E94901A4E
:1035E000882359F08091E2029091E302BE016F5F5F
:1035F0007F4F0E94023F81E001C080E0AB960FB692
:10360000F894DEBF0FBECDBFDF91CF910895CF9369
:10361000DF93CDB7DEB7AB970FB6F894DEBF0FBE22
:10362000CDBFBC018091E0029091E102AE014F5FFD
:103630005F4F0E94A53E91E0882309F490E0892F16
:10364000AB960FB6F894DEBF0FBECDBFDF91CF9122
:1036500008958091DC0208958091DD020895CF9352
:10366000DF93EC018091DE029091DF020097E1F0A0
:10367000BE016E5F7F4F488150E00E94563A28811C
:103680008091D0029091D102A091D202B091D30248
:10369000820F911DA11DB11D8093D0029093D10284
:1036A000A093D202B093D302DF91CF91089580917D
:1036B000DE029091DF026FEC72E041E050E00E9488
:1036C000443921E0181619060CF020E02093CE02B0
:1036D0008091D4029091D502A091D602B091D702E8
:1036E0000196A11DB11D8093D4029093D502A093A1
:1036F000D602B093D70208958091CE020895CF9359
:10370000DF930F92CDB7DEB78091CF0289830E94FD
:10371000571B89810F90DF91CF9108951092DC02A1
:103720008091DE029091DF02009721F00E943139F2
:103730000E94D7401092DF021092DE02089580911D
:10374000DC02882311F00E948E1B8091DD02882309
:1037500011F00E94D01B8091E0029091E10200974D
:1037600031F00E94383D1092E1021092E002809107
:10377000E2029091E302009731F00E94F438109237
:10378000E3021092E2028091E4029091E502009738
:1037900031F00E9451401092E5021092E402089527
:1037A0008091DD02882381F08091DE029091DF021A
:1037B000009721F00E9431390E94D7401092DF0219
:1037C0001092DE021092DD020E949F1B6091D002D7
:1037D0007091D1028091D2029091D30208950E94FB
:1037E000E541882371F40E94A940882329F40E94AE
:1037F0009F1B81E090E008950E949F1B82E090E073
:1038000008950E94D319882329F40E949F1B83E006
:1038100090E008950E94FF19882329F40E949F1BBD
:1038200084E090E008950E94101A882329F40E94F1
:103830009F1B85E090E008950E94C140882319F005
:1038400086E090E0089580E090E008950F931F9344
:10385000CF93DF9300D000D0CDB7DEB78C010E94AC
:103860009F1B0E94EF1B009719F08630910519F5F8
:103870001092D0021092D1021092D2021092D30272
:103880001092D4021092D5021092D6021092D70252
:103890001092DF021092DE02C8016EED72E00E940B
:1038A000B31A882331F08091DE029091DF020097F5
:1038B00059F487E090E00F900F900F900F90DF91F8
:1038C000CF911F910F91089521E02093DC0219827E
:1038D0001A821B821C82BE016F5F7F4F42E00E94F2
:1038E000A03C89819A81AB81BC818093D80290935E
:1038F000D902A093DA02B093DB0219821A821B82EA
:103900001C828091DE029091DF02BE016F5F7F4FCB
:1039100040E00E94A03C8AEB96E00E9440450E9455
:10392000571B80E090E0C7CF0F931F93CF93DF9397
:103930008C010E949F1B0E94EF1BEC010097A9F5D0
:103940001092D0021092D1021092D2021092D302A1
:103950001092D4021092D5021092D6021092D70281
:103960001092DF021092DE02C8010E94E11AC80123
:103970000E94071B882389F0C8016EED72E00E9447
:10398000B31A882369F08091DE029091DF020097DC
:1039900051F081E08093DD0208C0C7E0D0E005C0AF
:1039A000C3E0D0E002C0C8E0D0E0CE01DF91CF910B
:1039B0001F910F9108950E949F1B0E94EF1B00977B
:1039C00019F08630910541F48091E0029091E10276
:1039D0000E94983E80E090E0089580E090E0EFE85B
:1039E000FCE02081253C41F420E1EF3FF20709F0A3
:1039F00018F431960196F5CF089580919E0388239F
:103A000019F48091FD02089581E00895CF92DF922C
:103A1000EF92FF920F931F93CF93DF93CDB7DEB753
:103A2000A6970FB6F894DEBF0FBECDBF6C01109203
:103A30009E034EEFE42E42E0F42E00E010E0C801B9
:103A4000880F991FBC0133E0660F771F3A95E1F7A5
:103A5000681B790B6C0D7D1DCE0101960E945B6584
:103A6000F701DE01119686E20D9001928150E1F797
:103A70000F5F1F4F86E290E0E80EF91E043011053B
:103A8000F1F6A6960FB6F894DEBF0FBECDBFDF915C
:103A9000CF911F910F91FF90EF90DF90CF900895FD
:103AA000CF930E94976BCAE0382F292F862F972F2C
:103AB000A32FB22FBC01CD0120E030E040E251E461
:103AC0000E94FE6AC15081F7472F382F292F862F79
:103AD000942FA32FB22FBC01CD01CF91089589E877
:103AE00090E00E94B5478630A0F48BEA90E00E94F7
:103AF0005B49E1E0253E69F43E3B59F44D3A49F417
:103B0000563F39F4643729F4772319F4882309F4EC
:103B10009111E0E08E2F0895CF92DF92EF92FF9205
:103B20000F931F93CF93DF93182F092F8091EC02EF
:103B3000882329F18091E802882309F5812F60E02C
:103B400070E00E94C319EC01812F902F61E070E0BA
:103B50000E94C3197C01812F902F62E070E00E94C7
:103B6000C3196C01812F902F63E070E00E94C3198C
:103B70009C01CE01B701A6010E947B641FC0C0E07A
:103B8000D0E056E2E52EF12C812F902FBE010E944D
:103B9000C319CE9D9001CF9D300DDE9D300D1124B7
:103BA000FC014081518162817381C90182509D4F26
:103BB0000E9427652196C430D10531F7AFE9B3E003
:103BC000E12FF02F84E101900D928150E1F7DF9118
:103BD000CF911F910F91FF90EF90DF90CF900895BC
:103BE0008F929F92AF92BF92CF92DF92EF92FF920D
:103BF0000F931F93CF93DF93EC018091EC02882306
:103C000069F08091E802882349F4FE01AFE9B3E04E
:103C100084E10D9001928150E1F72FC040910003A3
:103C200050910103609102037091030300912603F8
:103C3000109127032091280330912903C0904C0351
:103C4000D0904D03E0904E03F0904F0380907203AC
:103C500090907303A0907403B090750300D000D0CF
:103C6000EDB7FEB71182128213821482CE010E9438
:103C70006D190F900F900F900F90CE01DF91CF91A3
:103C80001F910F91FF90EF90DF90CF90BF90AF907A
:103C90009F908F9008954F925F926F927F928F9234
:103CA0009F92AF92BF92CF92DF92EF92FF920F93CB
:103CB0001F93CF93DF93CDB7DEB7AA970FB6F894D3
:103CC000DEBF0FBECDBF0E946F1D882311F40E947E
:103CD000731286E291E063E00E94B14790E09C019C
:103CE000217030702093EC0221E081FF20E02093CE
:103CF000EB0291E082FF90E09093EA0281E0992349
:103D000029F08093EC021092100102C08093100100
:103D10008091EC02882309F4FDC38BE890E000E772
:103D20001BE524EF35E64BE150E060E070E00E94D7
:103D300050490E94501DDC01CB018093790B909378
:103D40007A0BA0937B0BB0937C0B83E990E024EF7C
:103D500035E64BE150E060E070E00E9450490E947F
:103D6000501DDC01CB0180937D0B90937E0BA093C3
:103D70007F0BB093800B8BE990E000E010E02DED1D
:103D80003EE049EE52E060E070E00E9450490E943F
:103D9000501DDC01CB018093810B9093820BA0938B
:103DA000830BB093840B83E591E04CE250E060E03C
:103DB00070E00E9413480E949B6B20E030E040E2DC
:103DC00051E40E94FE6ADC01CB018093850B909345
:103DD000860BA093870BB093880BE9E7AE2EEBE040
:103DE000BE2EFDEEEF2EF2E0FF2E6501F6012191D1
:103DF0003191419151916F0160E070E080E89FE363
:103E00000E94FE6A20E030E040E857E40E94DF6C48
:103E10000E94666BDC01CB01F70181939193A19322
:103E2000B1937F011F5F143009F78BE391E044EFFA
:103E300051E060E070E00E941348DC01CB01809308
:103E4000B70B9093B80BA093B90BB093BA0B8FE359
:103E500091E044EF51E060E070E00E941348DC0123
:103E6000CB018093BB0B9093BC0BA093BD0BB09385
:103E7000BE0B83E491E044E650E060E070E00E9415
:103E80001348DC01CB018093BF0B9093C00BA09330
:103E9000C10BB093C20B87E491E040E65AEE60E0BC
:103EA00070E00E941348DC01CB018093C30B909318
:103EB000C40BA093C50BB093C60BE7EB8E2EEBE0C3
:103EC0009E2EF9E64F2EFBE05F2E10E0F40161918B
:103ED0007191819191914F01F501C190D190E19043
:103EE000F1905F010E949B6BA70196010E94DF6C1D
:103EF0000E946B6BDC01CB01F20181939193A19342
:103F0000B1932F011F5F143009F787E291E040EA77
:103F100050E060E070E00E9413480E949B6B20E03C
:103F200030E040E857E40E94DF6C0E94666BDC01E1
:103F3000CB018093C70B9093C80BA093C90BB09390
:103F4000CA0B8BE291E040EA50E060E070E00E9432
:103F500013480E949B6B20E030E040E857E40E9449
:103F6000DF6C0E94666BDC01CB018093CB0B9093DE
:103F7000CC0BA093CD0BB093CE0B8FE291E048E039
:103F800050E060E070E00E9413480E949B6B20E0CC
:103F900030E040E857E40E94DF6C0E94666BDC0171
:103FA000CB018093CF0B9093D00BA093D10BB09308
:103FB000D20B83E391E044E650E060E070E00E94C1
:103FC00013480E949B6B20E030E040E857E40E94D9
:103FD000DF6C0E94666BDC01CB018093D30B909366
:103FE000D40BA093D50BB093D60B8BE491E040EDAE
:103FF00057E060E070E00E9413480E949B6B20E055
:1040000030E040E857E40E94DF6C0E94666BDC0100
:10401000CB018093AF0B9093B00BA093B10BB093F7
:10402000B20B8FE491E040EA5FE060E070E00E9454
:1040300013480E949B6B20E030E040E857E40E9468
:10404000DF6C0E94666BDC01CB018093AB0B90931D
:10405000AC0BA093AD0BB093AE0B87E591E040E0C5
:1040600050E060E070E00E9413480E949B6B20E0EB
:1040700030E040E251E40E94FE6A20E030E040E897
:1040800057E40E94DF6C0E94666BDC01CB018093D9
:10409000B30B9093B40BA093B50BB093B60B8BE519
:1040A00091E040E050E060E070E00E9413480E9420
:1040B0009B6B20E030E040E251E40E94FE6A20E089
:1040C00030E040E857E40E94DF6C0E94666BDC0140
:1040D000CB018093930B9093940BA093950BB0938B
:1040E000960B85E891E048E250E060E070E00E94C5
:1040F00013480E949B6B20E030E040E251E40E94B4
:10410000FE6A2091850B3091860B4091870B509170
:10411000880B0E94DF6C0E94666BDC01CB018093F0
:10412000690790936A07A0936B07B0936C0782E9C5
:1041300091E04CE251E060E070E00E9413480E9480
:104140009B6B20E030E040E251E40E94FE6A20E0F8
:1041500030E040E857E40E94DF6C0E94666BDC01AF
:10416000CB018093970B9093980BA093990BB093EE
:104170009A0B86E991E04CE251E060E070E00E9429
:1041800013480E949B6B20E030E040E251E40E9423
:10419000FE6A20E030E040E857E40E94DF6C0E94B5
:1041A000666BDC01CB0180939B0B90939C0BA093DF
:1041B0009D0BB0939E0B8AE991E049E150E060E0ED
:1041C00070E00E9413480E949B6B20E030E040E2C8
:1041D00051E40E94FE6A20E030E040E857E40E948B
:1041E000DF6C0E94666BDC01CB0180939F0B909388
:1041F000A00BA093A10BB093A20B8EE991E04CE22F
:1042000051E060E070E00E9413480E949B6B20E048
:1042100030E040E251E40E94FE6A20E030E040E8F5
:1042200057E40E94DF6C0E94666BDC01CB01809337
:10423000A30B9093A40BA093A50BB093A60B809116
:104240009F0B9091A00BA091A10BB091A20BE7E95D
:10425000FBE024E041915191619171914817590718
:104260006A077B0714F4DB01CA01215099F7809398
:10427000A70B9093A80BA093A90BB093AA0B87E66A
:1042800091E042E553E060E070E00E9413480E9434
:104290009B6B20E030E543EC57E40E94FE6A20E08F
:1042A00030E040E857E40E94DF6C0E94666B062F06
:1042B000872EC82E192F8FE591E044E853E060E087
:1042C00070E00E9413480E949B6B20E030E543ECB5
:1042D00057E40E94FE6A20E030E040E857E40E9484
:1042E000DF6C0E94666BF62E472EE82ED92E8FE6E5
:1042F00091E048EC50E060E070E00E9413480E94BA
:104300009B6B20E030E44CE156E40E94FE6A20E022
:1043100030E040E857E40E94DF6C0E94666BDC01ED
:10432000CB018093310B9093320BA093330BB0935E
:10433000340B83E691E042E050E060E070E00E94E0
:1043400013480E949B6B20E030E040E857E40E9455
:10435000DF6C0E94666BDC01CB0180938F0B909326
:10436000900BA093910BB093920B81E891E040E207
:1043700053E060E070E00E9413480E949B6B20E0D5
:1043800030E040E857E40E94DF6C0E94666BDC017D
:10439000CB0180938B0B90938C0BA0938D0BB093E0
:1043A0008E0B89E891E044E050E060E070E00E940C
:1043B0001348DC01CB0190938A0B8093890B8530E5
:1043C000910524F010928A0B1092890B8DE891E0F0
:1043D00041E050E060E070E00E941348DC01CB0156
:1043E0000097A105B10519F41092680703C081E098
:1043F000809368071092E8028091EB02882311F005
:1044000087E001C081E08093E902602F782D8C2D38
:10441000912F2F2D342D4E2D5D2D0091E6020E94FF
:10442000E35C0E94A65383EB93E060E070E00E949F
:10443000CB19FC01108211821282138283EB93E06C
:1044400061E070E00E94CB19FC011082118212829F
:10445000138283EB93E062E070E00E94CB19FC01D1
:10446000108211821282138283EB93E063E070E08A
:104470000E94CB19FC01108211821282138283EBFD
:1044800093E064E070E00E94CB19FC01108211827D
:10449000128213821092C7031092C8031092C903AC
:1044A0001092CA0380E00E94A0546B017C0181E05D
:1044B0000E94A0548B019C0182E029A73AA70E9488
:1044C000A0544B015C0183E00E94A0542B013C01ED
:1044D00000D000D0EDB7FEB7118212821382148291
:1044E000CE010196B701A60129A53AA5750164017F
:1044F000530142010E946D19AFE9B3E0FE0131960C
:1045000084E101900D928150E1F70F900F900F9090
:104510000F900DC0CE0145960E94F01DAFE9B3E0AB
:10452000FE01759684E101900D928150E1F7AA9603
:104530000FB6F894DEBF0FBECDBFDF91CF911F91B4
:104540000F91FF90EF90DF90CF90BF90AF909F9032
:104550008F907F906F905F904F9008952F923F9231
:104560004F925F926F927F928F929F92AF92BF9283
:10457000CF92DF92EF92FF920F931F93CF93DF932F
:10458000CDB7DEB7AB970FB6F894DEBF0FBECDBF89
:10459000782E692E8091EC02882309F44FC0809117
:1045A000E802882309F04AC0CE0145960E946C19A2
:1045B0008FB789A7F89480E00E94A0546B017C011A
:1045C00081E00E94A0548B019C0182E02AA73BA7B6
:1045D0000E94A0544B015C0183E00E94A0541B0187
:1045E0002C0100D000D0EDB7FEB7118212821382E9
:1045F0001482CE010196B701A6012AA53BA575013B
:104600006401520141010E946D19DE015596FE01BF
:10461000319684E101900D928150E1F7F9A5FFBF39
:10462000E72DF62DDE01559684E10D900192815023
:10463000E1F70F900F900F900F9004C0872D962DEB
:104640000E94F01D872D962DAB960FB6F894DEBF15
:104650000FBECDBFDF91CF911F910F91FF90EF90D3
:10466000DF90CF90BF90AF909F908F907F906F9092
:104670005F904F903F902F900895CF938091EC02E0
:10468000882371F08091E802882329F009C08C2FDB
:104690008A95F1F701C0C5E30E9498548823B9F3C5
:1046A000CF9108958093E60208952F923F924F9202
:1046B0005F926F927F928F929F92AF92BF92CF92B2
:1046C000DF92EF92FF920F931F93CF93DF93CDB7BB
:1046D000DEB768970FB6F894DEBF0FBECDBF9C8BD8
:1046E0008B8B7E8B6D8B29873A874B875C87902ECF
:1046F000D7011D921D921D921C92139729E33BE056
:10470000E1E5FBE0FA8BE98B4DEE52E05E874D87E9
:104710008F01AA24BB2419821A821B821C822224A4
:104720001D821E821F821886388F2F8B2701692CCD
:104730008A2C8D899E89B5010E94C319DC01CD9018
:10474000DD90ED90FC908B899C89B5010E94C31986
:10475000FC0180819181A281B381A7019601281B70
:10476000390B4A0B5B0BEF89F88D20833183428331
:104770005383211531054105510509F4A8C02130A5
:10478000F0E73F07F0E04F07F0E05F07D4F072E09A
:10479000972EA91489F48091410B9091420BA0911E
:1047A000430BB091440B80509047A040B040F201C1
:1047B00080839183A283B38320E030E740E050E020
:1047C00020C02030E0E93E07EFEF4E07EFEF5E0735
:1047D000FCF4F2E0AF1689F48091410B9091420B0A
:1047E000A091430BB091440B80509049AF4FBF4F05
:1047F000F20180839183A283B38320E030E94FEFFD
:104800005FEFAF89B88D2D933D934D935C931397D4
:10481000EF89F88D80819181A281B3817727662706
:10482000AD85BE852D913D914D915C910E94BF69F2
:104830009B01F8016083318382839383AF89B88DB4
:104840004D915D916D917C91139777FF07C07095A5
:104850006095509541955F4F6F4F7F4FFA01C62E7F
:10486000972EAF89B88D4C9311965C931197129641
:104870006C93129713967C931397A901BC0177FF51
:1048800007C070956095509541955F4F6F4F7F4F72
:104890008D819E81AF81B88584179507A607B707DC
:1048A0002CF4282C4D835E836F837887CF01AC2D49
:1048B000B92D29813A814B815C81281739074A0734
:1048C0005B0758F489839A83AB83BC8306C0D80105
:1048D0001D921D921D921C9213970894A11CB11C4D
:1048E000EF89F88D3496F88FEF8B0C5F1F4F2D8575
:1048F0003E852C5F3F4F3E872D8733E0A316B104E2
:1049000009F016CF962C89819A81AB81BC810097E2
:10491000A105B10511F000E003C001E099249394D2
:1049200029813A814B815C812093490B30934A0B5A
:1049300040934B0B50934C0B8D899E8963E070E044
:104940000E94C319DC01CD90DD90ED90FC908B8925
:104950009C8963E070E00E94C319FC018081918111
:10496000A281B381C81AD90AEA0AFB0AC092450B90
:10497000D092460BE092470BF092480BC114D10441
:10498000E104F10471F410925D0B10925E0B109231
:104990005F0B1092600B322C4D805E806F807884AC
:1049A00096C0F1E0CF16F0E7DF06F0E0EF06F0E0AA
:1049B000FF060CF07FC06FC08091450B9091460BB5
:1049C000A091470BB091480B772766272091F902F9
:1049D0003091FA024091FB025091FC020E94BF69A3
:1049E000DB0160935D0BB0935E0B80935F0B909344
:1049F000600B4091450B5091460B6091470B7091B5
:104A0000480B77FF07C070956095509541955F4FB3
:104A10006F4F7F4FF42FE52F362F272F4093450BF5
:104A20005093460B6093470B7093480B2D013C014C
:104A300077FE08C07094609450944094411C511CBF
:104A4000611C711C8D819E81AF81B885841595058F
:104A5000A605B70524F0322C2C013D0102C043E02D
:104A6000342E8F2F9E2FA32FB22F4091490B5091A0
:104A70004A0B60914B0B70914C0B481759076A0712
:104A80007B0728F58093490B90934A0BA0934B0B1F
:104A9000B0934C0B1CC090E0C91690E9D9069FEF6B
:104AA000E9069FEFF9060CF087CF80E090E9AFEFC1
:104AB000BFEF04C080E090E7A0E0B0E08093450B3A
:104AC0009093460BA093470BB093480B75CF0023F0
:104AD00061F02091490B30914A0B40914B0B509162
:104AE0004C0B29833A834B835C83992009F45BC088
:104AF00000E0CC24DD247601031541F1A989BA89AF
:104B00006D917D918D919C91139761157105810532
:104B10009105E1F0A30192010E943D6A4B015C0105
:104B2000E989FA896081718182819381A30192016F
:104B30000E943D6A9B01AC01C501B4010E94BF699E
:104B4000DC01CB01C80ED91EEA1EFB1E0F5F2989AE
:104B50003A892C5F3F4F3A8B298B043069F686E007
:104B6000CC0CDD1CEE1CFF1C8A95D1F7EE2DF0E07D
:104B7000EE0FFF1FEE0FFF1FE055FF4F0591159140
:104B800025913491B801C901A30192010E94BF6926
:104B90004B015C0160934D0B70934E0B80934F0B58
:104BA0009093500BF7C081E59BE000E0CC24DD241E
:104BB00076019E878D87021561F1AD85BE856D9169
:104BC0007D918D919C9113976115710581059105DA
:104BD00001F12D813E814F8158850E943D6A4B0134
:104BE0005C01ED85FE8560817181828193812D81DB
:104BF0003E814F8158850E943D6A9B01AC01C501F1
:104C0000B4010E94BF69DC01CB01C80ED91EEA1EA7
:104C1000FB1E0F5F2D853E852C5F3F4F3E872D8706
:104C2000033049F6D701C60116E0880F991FAA1F65
:104C3000BB1F1A95D1F7EA2FF0E0EE0FFF1FEE0F22
:104C4000FF1FE055FF4F0591159125913491B80153
:104C5000C9012D813E814F8158850E94BF694B015A
:104C60005C013214C9F533E0331609F470C0609169
:104C70005D0B70915E0B80915F0B9091600B6115E5
:104C800071058105910509F462C02D813E814F8136
:104C900058850E943D6A6D877E878F87988B6091CB
:104CA0005D0B70915E0B80915F0B9091600B2D817D
:104CB0003E814F8158850E943D6A9B01AC016D8504
:104CC0007E858F8598890E94BF69DC01CB01C80E63
:104CD000D91EEA1EFB1E3BC000E0CC24DD24760179
:104CE000031561F1A989BA896D917D918D919C918E
:104CF0001397611571058105910501F1A3019201D9
:104D00000E943D6A6D837E838F839887E989FA8943
:104D10006081718182819381A30192010E943D6A29
:104D20009B01AC016D817E818F8198850E94BF6956
:104D3000DC01CB01C80ED91EEA1EFB1E0F5F2989BC
:104D40003A892C5F3F4F3A8B298B043049F6A6E015
:104D5000CC0CDD1CEE1CFF1CAA95D1F7EE2DF0E06B
:104D6000EE0FFF1FEE0FFF1FE055FF4F059115914E
:104D700025913491B801C901A30192010E94BF6934
:104D8000DC01CB0180934D0B90934E0BA0934F0B06
:104D9000B093500B89859A85AB85BC85181619068A
:104DA0001A061B060CF0CEC029813A814B815C812A
:104DB000211531054105510509F4C4C0DA01C901C5
:104DC00029853A854B855C85822B932BA42BB52BAB
:104DD000AC01BD0140705078411551056105710568
:104DE000E9F4C501B40120E432E44FE050E00E9450
:104DF000BF696B017C0189809A80AB80BC80C40153
:104E00007727662789849A84AB84BC849401112710
:104E10000027552737FD5095452F54C0807090705E
:104E2000A0780097A105B10539F055C0B595A795B3
:104E300097958795015005C000E189859A85AB85D6
:104E4000BC85803020E8920720E0A20720E0B2076E
:104E50006CF789879A87AB87BC8789819A81AB81F8
:104E6000BC8105C0B695A795979587950150803070
:104E700030E8930730E0A30730E0B30798F7898361
:104E80009A83AB83BC83C501B40120E432E44FE0D4
:104E900050E00E94BF696B017C0189809A80AB80E1
:104EA000BC80C4017727662789849A84AB84BC843C
:104EB000A4013327222704C0559547953795279598
:104EC0000A95D2F70E94BF699B01AC01C701B601E8
:104ED0000E943D6A34C0C501B4010E949D6B20E070
:104EE00030E040E857E30E94DF6C20E034E244E722
:104EF00059E40E94DF6C4B015C0169817A818B81EE
:104F00009C810E949B6B6B017C0169857A858B85F6
:104F10009C850E949D6B9B01AC01C701B6010E945C
:104F2000DF6C9B01AC01C501B4010E94FE6A20E068
:104F300030E040E857E40E94DF6C0E94666B8B0112
:104F40009C0104C000E010E020E030E0B801C9019D
:104F500068960FB6F894DEBF0FBECDBFDF91CF913C
:104F60001F910F91FF90EF90DF90CF90BF90AF9087
:104F70009F908F907F906F905F904F903F902F9079
:104F80000895AF92BF92DF92EF92FF920F931F931B
:104F9000CF93DF93CDB7DEB764970FB6F894DEBF3B
:104FA0000FBECDBF8093E7028091EC02882309F405
:104FB0003EC08091E8028823D1F526C08D2D902F28
:104FC000B7010E94CB19EA9C9001EB9C300DFA9C32
:104FD000300D1124FC014081518162817381C9012E
:104FE00082509D4F0E9427650894E11CF11CF4E05B
:104FF000EF16F10419F781E08093E8028AEB96E05E
:105000000E94FA44789413C00E943D23F8941092B1
:105010009E038E010F5F1F4FC8010E94F01DEE24FA
:10502000FF24D02E012FE6E2AE2EB12CC7CF64961E
:105030000FB6F894DEBF0FBECDBFDF91CF911F91A9
:105040000F91FF90EF90DF90BF90AF9008957F9207
:105050008F929F92AF92BF92CF92DF92EF92FF9288
:105060000F931F93CF93DF93CDB7DEB764970FB63F
:10507000F894DEBF0FBECDBF1092E7028091EC0224
:10508000882309F455C08091E802882309F450C0B0
:1050900045C081E0809310014091000350910103CD
:1050A000609102037091030300912603109127037E
:1050B0002091280330912903C0904C03D0904D03D8
:1050C000E0904E03F0904F03809072039090730332
:1050D000A0907403B0907503809198039091990308
:1050E000A0919A03B0919B0300D000D0EDB7FEB71A
:1050F00081839283A383B483CE0101960E946D19AC
:105100000F900F900F900F90CE0101960E948C1D72
:105110008AEB96E00E940B457FBE0AC07FB6F894EA
:105120001092E8028091EA02882309F4B2CFB4CF4A
:1051300064960FB6F894DEBF0FBECDBFDF91CF915E
:105140001F910F91FF90EF90DF90CF90BF90AF90A5
:105150009F908F907F9008952F923F924F925F92F1
:105160006F927F928F929F92AF92BF92CF92DF9277
:10517000EF92FF920F931F93CF93DF93CDB7DEB7DC
:10518000EA970FB6F894DEBF0FBECDBF1C014AAB45
:105190005BAB6CAB7DABB22E8091EC02882391F1BE
:1051A0008091E802882371F18091E702882351F50C
:1051B000C10163E070E023FF0CC00E94C319FC0131
:1051C00080819181A281B3810097A105B105C1F4CD
:1051D00019C00E94C319DC01CD90DD90ED90FC90C8
:1051E0008FE993E063E070E00E94CB19FC018081BD
:1051F0009181A281B381C816D906EA06FB0611F097
:105200000E9427288091EC02882309F4F3C1809141
:10521000E802882309F0EEC1DE015E96F10184E127
:1052200001900D928150E1F700E010E02B2D30E06D
:105230003FAB2EAB8EA99FA9002E02C095958795F6
:105240000A94E2F780FF40C0CE014E96B8010E945A
:10525000CB194C018FE993E0B8010E94CB19DC0116
:10526000CD90DD90ED90FC90C101B8010E94C31972
:10527000FC0180819181A281B3818C0D9D1DAE1DA9
:10528000BF1DF40180839183A283B383CE014E9628
:10529000B8010E94CB194C01DC01CD90DD90ED905E
:1052A000FC9083EB93E0B8010E94CB19FC01808154
:1052B0009181A281B3818C0D9D1DAE1DBF1DF40196
:1052C00080839183A283B3830F5F1F4F0430110546
:1052D00009F0B0CF4090C7035090C8036090C90355
:1052E0007090CA032AA93BA94CA95DA9420E531E7E
:1052F000641E751E00E010E0CC24DD24760103302E
:10530000110529F4C114D104E104F10461F5CE01C1
:105310004E96B8010E94CB19DC018D909D90AD9006
:10532000BC908FE993E0B8010E94CB19FC01808109
:105330009181A281B381A5019401281B390B4A0BED
:105340005B0BDA01C90157FF07C0B095A095909596
:1053500081959F4FAF4FBF4FC816D906EA06FB068F
:1053600014F46C017D010F5F1F4F0430110539F6F5
:10537000C301B201A70196010E94AA6D2AAB38AF02
:1053800049AF5AAF1E821F82188619868FE993E0B3
:10539000BE01625E7F4F2AA938AD49AD5AAD00E02B
:1053A000B6E0EB2EF12CEC0EFD1E0E9455234B01B6
:1053B0005C018E819F81A885B9850097A105B10503
:1053C000A1F0CE014E9662E070E00E94CB19FC0184
:1053D00080819181A281B3814E815F8168857985C9
:1053E000841B950BA60BB70B0BC0CE014E9662E04B
:1053F00070E00E94CB19FC0180819181A281B38170
:105400008A839B83AC83BD83CE014E9660E070E0BF
:105410000E94CB198C01CE014E9661E070E00E9493
:10542000CB197C01CE014E9663E070E00E94CB194F
:105430009C011982C801B701AE014E5F5F4F850123
:1054400074016E010894C11CD11CA09010010E942F
:10545000215D882309F453C0AFE9B3E0FE017E96D5
:1054600084E101900D928150E1F700D000D0ADB7FA
:10547000BEB711961D921D921D921C921497CE01DB
:105480000A9640E050E060E070E000E010E020E0CC
:1054900030E0CC24DD2476018824992454010E9434
:1054A0006D19A3EBB3E0FE013A9684E101900D92F1
:1054B0008150E1F71092C7031092C8031092C903FC
:1054C0001092CA030F900F900F900F908E819F81C2
:1054D000A885B9850097A105B10509F475C08FE9C4
:1054E00093E062E070E00E94CB194A815B816C819D
:1054F0007D81FC01408351836283738365C000E03A
:1055000010E08EA99FA9002E02C0959587950A9458
:10551000E2F780FF19C083EB93E0B8010E94CB193A
:105520004C01DC01CD90DD90ED90FC90C101B80103
:105530000E94C319FC0180819181A281B3818C0DED
:105540009D1DAE1DBF1D21C083EB93E0B8010E94DD
:10555000CB194C01C101B8010E94C319DC01CD90E7
:10556000DD90ED90FC908FE993E0B8010E94CB199B
:10557000FC0180819181A281B381A7019601281B42
:10558000390B4A0B5B0BDA01C901F401808391836B
:10559000A283B3830F5F1F4F0430110509F0B1CF11
:1055A0008091C7039091C803A091C903B091CA0329
:1055B000840D951DA61DB71D8093C7039093C80346
:1055C000A093C903B093CA030E94B7649091E90203
:1055D000891720F0F1E0F0939E0302C010929E0321
:1055E0008E819F81A885B9850097A105B10509F035
:1055F000CDCEB4C000E010E0A6E2EA2EF12C4B2C98
:1056000055240E9D60010F9DD00C1E9DD00C1124C1
:105610002EEF32E0C20ED31EB02E812EC101B80192
:105620000E94C319DC014D915D916D917C919201B5
:10563000002E02C0359527950A94E2F7217030704C
:10564000C6010E94C264F601828D938DA48DB58D32
:105650000230110561F42091E602222341F461E059
:105660000097A105B10509F460E0C60106C00097E6
:10567000A105B10521F0C60161E00E942D658FE909
:1056800093E06B2D782D0E94CB199C01FEEFCF2E5D
:10569000F2E0DF2E0E9DF0010F9DF00D1E9DF00D2E
:1056A0001124EC0DFD1D82899389A489B589F90126
:1056B00080839183A283B3830F5F1F4F0430110552
:1056C00009F09FCF6AA97BA98CA99DA920E830E0A9
:1056D00040E050E00E94AA6D89019A0100939A036C
:1056E00010939B0320939C0330939D030093960398
:1056F000109397032093980330939903C901B8013D
:1057000022E030E040E050E00E94AA6D89019A0159
:1057100030952095109501951F4F2F4F3F4FD60183
:1057200056960D931D932D933C935997F60104AF14
:1057300015AF26AF37AF009360031093610320933A
:1057400062033093630300938603109387032093CF
:1057500088033093890381E080939E03EA960FB615
:10576000F894DEBF0FBECDBFDF91CF911F910F9197
:10577000FF90EF90DF90CF90BF90AF909F908F9071
:105780007F906F905F904F903F902F9008952F9251
:105790003F924F925F926F927F928F929F92AF92C1
:1057A000BF92CF92DF92EF92FF920F931F93CF930E
:1057B000DF93CDB7DEB72D970FB6F894DEBF0FBEDF
:1057C000CDBF782E692E4A875B876C877D87809155
:1057D000EC02882321F18091E802882301F1809175
:1057E000E7028823E1F4872D63E070E00E94C3198B
:1057F000FC01C080D180E280F3808FE993E063E018
:1058000070E00E94CB19FC0180819181A281B3815B
:10581000C816D906EA06FB0611F00E9427288091D7
:10582000EC02882309F4A3C08091E802882309F0E0
:105830009EC01E821F82188619868FE993E0672D0D
:10584000762D2A853B854C855D8501E0E6E0EE2ED0
:10585000F12CEC0EFD1E0E9455234B015C018E8144
:105860009F81A885B9850097A105B105A1F0872D75
:10587000962D62E070E00E94C319FC018081918145
:10588000A281B3814E815F8168857985841B950BE8
:10589000A60BB70B0BC0872D962D62E070E00E941F
:1058A000C319FC0180819181A281B3818A839B838A
:1058B000AC83BD83872D962D60E070E00E94C319F4
:1058C0008C01872D962D61E070E00E94C3196C0158
:1058D000872D962D63E070E00E94C3199C01198208
:1058E000C801B601AE014E5F5F4F850174016E01C4
:1058F0000894C11CD11CA09010010E94215D882336
:1059000049F0AFE9B3E0E72DF62D84E101900D9267
:105910008150E1F78E819F81A885B9850097A10507
:10592000B10579F08FE993E062E070E00E94CB1955
:105930004A815B816C817D81FC014083518362835C
:1059400073830E94B7649091E902891720F081E087
:1059500080939E0302C010929E038E819F81A88532
:10596000B9850097A105B10509F067CFA9C000E08E
:1059700010E088249924540186E2282E312C029DBF
:105980002001039D500C129D500C11248EEF92E0CB
:10599000480E591E872D962DB8010E94C319FC018F
:1059A0004081518162817381C20120E00E94C26402
:1059B000F201C28CD38CE48CF58C0230110569F4B1
:1059C0008091E602882349F461E0C114D104E10426
:1059D000F10409F460E0C20107C0C114D104E1047C
:1059E000F10421F0C20161E00E942D658C149D0438
:1059F000AE04BF0414F4460157010F5F1F4F04307B
:105A0000110509F0BCCFC501B4012A853B854C8541
:105A10005D850E94426D20E830E040E050E00E9449
:105A2000AA6D89019A0100939A0310939B03209316
:105A30009C0330939D030093960310939703209348
:105A4000980330939903C901B80122E030E040E0A7
:105A500050E00E94AA6D89019A0130952095109519
:105A600001951F4F2F4F3F4F0093140310931503C1
:105A7000209316033093170300933A0310933B03CC
:105A800020933C0330933D03009360031093610324
:105A9000209362033093630300938603109387037C
:105AA000209388033093890381E080939E03AFE9BC
:105AB000B3E0E72DF62D84E101900D928150E1F7DE
:105AC0002D960FB6F894DEBF0FBECDBFDF91CF91FC
:105AD0001F910F91FF90EF90DF90CF90BF90AF900C
